{
  "contractName": "Neuroledger",
  "abi": [
    {
      "anonymous": false,
      "inputs": [
        {
          "indexed": true,
          "internalType": "bytes32",
          "name": "anchorKey",
          "type": "bytes32"
        },
        {
          "indexed": false,
          "internalType": "string",
          "name": "fileHash",
          "type": "string"
        },
        {
          "indexed": false,
          "internalType": "address",
          "name": "uploader",
          "type": "address"
        },
        {
          "indexed": false,
          "internalType": "uint256",
          "name": "timestamp",
          "type": "uint256"
        }
      ],
      "name": "ReportHashStored",
      "type": "event"
    },
    {
      "inputs": [
        {
          "internalType": "string",
          "name": "fileHash",
          "type": "string"
        }
      ],
      "name": "storeReportHash",
      "outputs": [],
      "stateMutability": "nonpayable",
      "type": "function"
    },
    {
      "inputs": [
        {
          "internalType": "string",
          "name": "fileHash",
          "type": "string"
        }
      ],
      "name": "getReportHash",
      "outputs": [
        {
          "internalType": "string",
          "name": "storedFileHash",
          "type": "string"
        },
        {
          "internalType": "uint256",
          "name": "timestamp",
          "type": "uint256"
        },
        {
          "internalType": "address",
          "name": "uploader",
          "type": "address"
        },
        {
          "internalType": "bool",
          "name": "exists",
          "type": "bool"
        }
      ],
      "stateMutability": "view",
      "type": "function",
      "constant": true
    },
    {
      "inputs": [
        {
          "internalType": "string",
          "name": "fileHash",
          "type": "string"
        }
      ],
      "name": "verifyReportHash",
      "outputs": [
        {
          "internalType": "bool",
          "name": "",
          "type": "bool"
        }
      ],
      "stateMutability": "view",
      "type": "function",
      "constant": true
    }
  ],
  "bytecode": "0x608060405234801561000f575f80fd5b506107208061001d5f395ff3fe608060405234801561000f575f80fd5b506004361061003f575f3560e01c80634029520b1461004357806381eda40214610058578063e3c5b37414610080575b5f80fd5b610056610051366004610454565b6100a3565b005b61006b610066366004610454565b61021b565b60405190151581526020015b60405180910390f35b61009361008e366004610454565b61032c565b6040516100779493929190610542565b5f8151116100ec5760405162461bcd60e51b8152602060048201526011602482015270199a5b1952185cda081c995c5d5a5c9959607a1b60448201526064015b60405180910390fd5b80516020808301919091205f81815291829052604090912060020154600160a01b900460ff16156101575760405162461bcd60e51b81526020600482015260156024820152741a185cda08185b1c9958591e48185b98da1bdc9959605a1b60448201526064016100e3565b60408051608081018252838152426020808301919091523382840152600160608301525f8481529081905291909120815181906101949082610601565b5060208201516001820155604080830151600290920180546060909401511515600160a01b026001600160a81b03199094166001600160a01b03909316929092179290921790555181907f1211636655cdd8f9bd67d2b7ce38d95a39fbe1e6a974ebd18d6f5816a11c7ba19061020f908590339042906106bd565b60405180910390a25050565b5f80828051906020012090505f805f8381526020019081526020015f206040518060800160405290815f820180546102529061057b565b80601f016020809104026020016040519081016040528092919081815260200182805461027e9061057b565b80156102c95780601f106102a0576101008083540402835291602001916102c9565b820191905f5260205f20905b8154815290600101906020018083116102ac57829003601f168201915b5050509183525050600182015460208201526002909101546001600160a01b0381166040830152600160a01b900460ff161515606091820152810151909150801561032457508380519060200120815f015180519060200120145b949350505050565b60605f805f80858051906020012090505f805f8381526020019081526020015f206040518060800160405290815f820180546103679061057b565b80601f01602080910402602001604051908101604052809291908181526020018280546103939061057b565b80156103de5780601f106103b5576101008083540402835291602001916103de565b820191905f5260205f20905b8154815290600101906020018083116103c157829003601f168201915b505050918352505060018201546020808301919091526002909201546001600160a01b038116604080840191909152600160a01b90910460ff161515606092830152835192840151908401519390910151919a90995091975095509350505050565b634e487b7160e01b5f52604160045260245ffd5b5f60208284031215610464575f80fd5b813567ffffffffffffffff8082111561047b575f80fd5b818401915084601f83011261048e575f80fd5b8135818111156104a0576104a0610440565b604051601f8201601f19908116603f011681019083821181831017156104c8576104c8610440565b816040528281528760208487010111156104e0575f80fd5b826020860160208301375f928101602001929092525095945050505050565b5f81518084525f5b8181101561052357602081850181015186830182015201610507565b505f602082860101526020601f19601f83011685010191505092915050565b608081525f61055460808301876104ff565b6020830195909552506001600160a01b039290921660408301521515606090910152919050565b600181811c9082168061058f57607f821691505b6020821081036105ad57634e487b7160e01b5f52602260045260245ffd5b50919050565b601f8211156105fc575f81815260208120601f850160051c810160208610156105d95750805b601f850160051c820191505b818110156105f8578281556001016105e5565b5050505b505050565b815167ffffffffffffffff81111561061b5761061b610440565b61062f81610629845461057b565b846105b3565b602080601f831160018114610662575f841561064b5750858301515b5f19600386901b1c1916600185901b1785556105f8565b5f85815260208120601f198616915b8281101561069057888601518255948401946001909101908401610671565b50858210156106ad57878501515f19600388901b60f8161c191681555b5050505050600190811b01905550565b606081525f6106cf60608301866104ff565b6001600160a01b03949094166020830152506040015291905056fea2646970667358221220de593753bbd314abc868c9ad2549156073b8e3ccf94554448ebfef6a6e11b25b64736f6c63430008150033",
  "immutableReferences": {},
  "source": "// SPDX-License-Identifier: MIT\npragma solidity ^0.8.21;\n\ncontract Neuroledger {\n    struct ReportAnchor {\n        string fileHash;\n        uint256 timestamp;\n        address uploader;\n        bool exists;\n    }\n\n    mapping(bytes32 => ReportAnchor) private anchorsByHash;\n\n    event ReportHashStored(\n        bytes32 indexed anchorKey,\n        string fileHash,\n        address uploader,\n        uint256 timestamp\n    );\n\n    function storeReportHash(string memory fileHash) external {\n        require(bytes(fileHash).length > 0, \"fileHash required\");\n\n        bytes32 anchorKey = keccak256(bytes(fileHash));\n        require(!anchorsByHash[anchorKey].exists, \"hash already anchored\");\n\n        anchorsByHash[anchorKey] = ReportAnchor({\n            fileHash: fileHash,\n            timestamp: block.timestamp,\n            uploader: msg.sender,\n            exists: true\n        });\n\n        emit ReportHashStored(anchorKey, fileHash, msg.sender, block.timestamp);\n    }\n\n    function getReportHash(\n        string memory fileHash\n    ) external view returns (string memory storedFileHash, uint256 timestamp, address uploader, bool exists) {\n        bytes32 anchorKey = keccak256(bytes(fileHash));\n        ReportAnchor memory anchor = anchorsByHash[anchorKey];\n\n        return (\n            anchor.fileHash,\n            anchor.timestamp,\n            anchor.uploader,\n            anchor.exists\n        );\n    }\n\n    function verifyReportHash(string memory fileHash) external view returns (bool) {\n        bytes32 anchorKey = keccak256(bytes(fileHash));\n        ReportAnchor memory anchor = anchorsByHash[anchorKey];\n\n        return anchor.exists && keccak256(bytes(anchor.fileHash)) == keccak256(bytes(fileHash));\n    }\n}\n",
  "sourcePath": "C:\\Users\\saksh\\NEUROLEDGER\\blockchain\\contracts\\Neuroledger.sol",
  "compiler": {
    "name": "solc",
    "version": "0.8.21+commit.d9974bed.Emscripten.clang"
  },
  "schemaVersion": "3.4.16",
  "updatedAt": "2026-04-19T09:37:17.347Z",
  "networkType": "ethereum",
  "devdoc": {
    "kind": "dev",
    "methods": {},
    "version": 1
  },
  "userdoc": {
    "kind": "user",
    "methods": {},
    "version": 1
  }
}